:1000000009C01BC018C017C016C015C014C013C04B
:1000100013C011C011241FBECFE9CDBF10E0A0E670
:10002000B0E0ECEBF1E002C005900D92A436B10710
:10003000D9F769D0C1C0E4CF1895189591B59061F2
:1000400091BD81BDA89581B5806881BD7894889562
:10005000F8940895CF93C82F883018F081EEEEDF22
:10006000C850C43018F080EEE9DFC450C23018F038
:1000700087ECE4DFC250CC2319F086ECCF91DECFC1
:10008000CF910895C49A8AE28A95F1F700C0C49886
:100090000895C19A80ECD2DFB998C1988BB780647B
:1000A0008BBF84ECCBDF86B39BB79F7B9BBFB99A9A
:1000B000869581700895809163008F5F80936300BF
:1000C000209160009091620092279827909362009F
:1000D00080916100890F8093610086958927820F46
:1000E000809360000895CF93C82FE5DFC33010F4EC
:1000F000817005C0C53010F4837001C087708C1703
:10010000A0F7CF91089583E085BD80E888B982E1AA
:1001100087BB8DEE88BB85B7877E806185BF85B73D
:10012000806285BFAFDF84EC89DFACDF81EE86DFE4
:10013000B0DF8823D9F3C4E086EC80DFA3DFC150B1
:10014000D9F786EC7BDF88E0CEDFC81710F086ECAD
:1001500075DF9FDF882351F395DFCF5FC43089F7C8
:10016000D0E012E0C1E001E0010F802F8C1BBBDF6B
:100170008C0F70DF8EDF8823C9F284DFDF5F8D2F65
:10018000837019F4183008F4102F8D2F877009F43C
:10019000CF5FC83040F3C2ECD1E081EE4FDF79DFB2
:1001A000882321F26FDF21972097B9F781EE46DF90
:0C01B00070DF8111FBCFBACFF894FFCFB5
:0401BC00BEBAFECAFF
:00000001FF
